{
  "_format": "hh-sol-artifact-1",
  "contractName": "Tournaments",
  "sourceName": "contracts/Tournaments.sol",
  "abi": [
    {
      "anonymous": false,
      "inputs": [
        {
          "indexed": false,
          "internalType": "uint256",
          "name": "id",
          "type": "uint256"
        },
        {
          "indexed": false,
          "internalType": "string[]",
          "name": "players",
          "type": "string[]"
        }
      ],
      "name": "TournamentCreated",
      "type": "event"
    },
    {
      "inputs": [
        {
          "internalType": "string[]",
          "name": "_players",
          "type": "string[]"
        },
        {
          "internalType": "string",
          "name": "_winner",
          "type": "string"
        }
      ],
      "name": "createTournament",
      "outputs": [],
      "stateMutability": "nonpayable",
      "type": "function"
    },
    {
      "inputs": [
        {
          "internalType": "uint256",
          "name": "_id",
          "type": "uint256"
        }
      ],
      "name": "getTournament",
      "outputs": [
        {
          "internalType": "uint256",
          "name": "id",
          "type": "uint256"
        },
        {
          "internalType": "uint256",
          "name": "rounds",
          "type": "uint256"
        },
        {
          "internalType": "string[]",
          "name": "players",
          "type": "string[]"
        },
        {
          "internalType": "string",
          "name": "winner",
          "type": "string"
        },
        {
          "internalType": "uint256",
          "name": "date",
          "type": "uint256"
        }
      ],
      "stateMutability": "view",
      "type": "function"
    },
    {
      "inputs": [],
      "name": "tournamentCount",
      "outputs": [
        {
          "internalType": "uint256",
          "name": "",
          "type": "uint256"
        }
      ],
      "stateMutability": "view",
      "type": "function"
    },
    {
      "inputs": [
        {
          "internalType": "uint256",
          "name": "",
          "type": "uint256"
        }
      ],
      "name": "tournaments",
      "outputs": [
        {
          "internalType": "uint256",
          "name": "id",
          "type": "uint256"
        },
        {
          "internalType": "uint256",
          "name": "rounds",
          "type": "uint256"
        },
        {
          "internalType": "string",
          "name": "winner",
          "type": "string"
        },
        {
          "internalType": "uint256",
          "name": "date",
          "type": "uint256"
        }
      ],
      "stateMutability": "view",
      "type": "function"
    }
  ],
  "bytecode": "0x608060405234801561001057600080fd5b50610d16806100206000396000f3fe608060405234801561001057600080fd5b506004361061004c5760003560e01c80631a5bd7fc146100515780636e2b2c7c146100855780637503e1b7146100a3578063b4a6b4a0146100d6575b600080fd5b61006b600480360381019061006691906107b2565b6100f2565b60405161007c959493929190610990565b60405180910390f35b61008d610321565b60405161009a9190610945565b60405180910390f35b6100bd60048036038101906100b891906107b2565b610327565b6040516100cd94939291906109f1565b60405180910390f35b6100f060048036038101906100eb9190610746565b6103df565b005b6000806060806000808611801561010b57506001548611155b61014a576040517f08c379a000000000000000000000000000000000000000000000000000000000815260040161014190610925565b60405180910390fd5b60008060008881526020019081526020016000206040518060a0016040529081600082015481526020016001820154815260200160028201805480602002602001604051908101604052809291908181526020016000905b8282101561024e5783829060005260206000200180546101c190610bb0565b80601f01602080910402602001604051908101604052809291908181526020018280546101ed90610bb0565b801561023a5780601f1061020f5761010080835404028352916020019161023a565b820191906000526020600020905b81548152906001019060200180831161021d57829003601f168201915b5050505050815260200190600101906101a2565b50505050815260200160038201805461026690610bb0565b80601f016020809104026020016040519081016040528092919081815260200182805461029290610bb0565b80156102df5780601f106102b4576101008083540402835291602001916102df565b820191906000526020600020905b8154815290600101906020018083116102c257829003601f168201915b50505050508152602001600482015481525050905080600001518160200151826040015183606001518460800151955095509550955095505091939590929450565b60015481565b600060205280600052604060002060009150905080600001549080600101549080600301805461035690610bb0565b80601f016020809104026020016040519081016040528092919081815260200182805461038290610bb0565b80156103cf5780601f106103a4576101008083540402835291602001916103cf565b820191906000526020600020905b8154815290600101906020018083116103b257829003601f168201915b5050505050908060040154905084565b600160008154809291906103f290610be2565b91905055506040518060a001604052806001548152602001600184516104189190610b30565b8152602001838152602001828152602001428152506000806001548152602001908152602001600020600082015181600001556020820151816001015560408201518160020190805190602001906104719291906104db565b50606082015181600301908051906020019061048e92919061053b565b50608082015181600401559050507f5ac0cd514f29eb9e429b310c4c26bccd7c09a272eb02f3acdf23c3ac9f9fe8f9600154836040516104cf929190610960565b60405180910390a15050565b82805482825590600052602060002090810192821561052a579160200282015b8281111561052957825182908051906020019061051992919061053b565b50916020019190600101906104fb565b5b50905061053791906105c1565b5090565b82805461054790610bb0565b90600052602060002090601f01602090048101928261056957600085556105b0565b82601f1061058257805160ff19168380011785556105b0565b828001600101855582156105b0579182015b828111156105af578251825591602001919060010190610594565b5b5090506105bd91906105e5565b5090565b5b808211156105e157600081816105d89190610602565b506001016105c2565b5090565b5b808211156105fe5760008160009055506001016105e6565b5090565b50805461060e90610bb0565b6000825580601f10610620575061063f565b601f01602090049060005260206000209081019061063e91906105e5565b5b50565b600061065561065084610a6e565b610a3d565b9050808382526020820190508260005b85811015610695578135850161067b8882610707565b845260208401935060208301925050600181019050610665565b5050509392505050565b60006106b26106ad84610a9a565b610a3d565b9050828152602081018484840111156106ca57600080fd5b6106d5848285610b6e565b509392505050565b600082601f8301126106ee57600080fd5b81356106fe848260208601610642565b91505092915050565b600082601f83011261071857600080fd5b813561072884826020860161069f565b91505092915050565b60008135905061074081610cc9565b92915050565b6000806040838503121561075957600080fd5b600083013567ffffffffffffffff81111561077357600080fd5b61077f858286016106dd565b925050602083013567ffffffffffffffff81111561079c57600080fd5b6107a885828601610707565b9150509250929050565b6000602082840312156107c457600080fd5b60006107d284828501610731565b91505092915050565b60006107e78383610864565b905092915050565b60006107fa82610ada565b6108048185610afd565b93508360208202850161081685610aca565b8060005b85811015610852578484038952815161083385826107db565b945061083e83610af0565b925060208a0199505060018101905061081a565b50829750879550505050505092915050565b600061086f82610ae5565b6108798185610b0e565b9350610889818560208601610b7d565b61089281610cb8565b840191505092915050565b60006108a882610ae5565b6108b28185610b1f565b93506108c2818560208601610b7d565b6108cb81610cb8565b840191505092915050565b60006108e3601483610b1f565b91507f546f75726e616d656e74206e6f7420666f756e640000000000000000000000006000830152602082019050919050565b61091f81610b64565b82525050565b6000602082019050818103600083015261093e816108d6565b9050919050565b600060208201905061095a6000830184610916565b92915050565b60006040820190506109756000830185610916565b818103602083015261098781846107ef565b90509392505050565b600060a0820190506109a56000830188610916565b6109b26020830187610916565b81810360408301526109c481866107ef565b905081810360608301526109d8818561089d565b90506109e76080830184610916565b9695505050505050565b6000608082019050610a066000830187610916565b610a136020830186610916565b8181036040830152610a25818561089d565b9050610a346060830184610916565b95945050505050565b6000604051905081810181811067ffffffffffffffff82111715610a6457610a63610c89565b5b8060405250919050565b600067ffffffffffffffff821115610a8957610a88610c89565b5b602082029050602081019050919050565b600067ffffffffffffffff821115610ab557610ab4610c89565b5b601f19601f8301169050602081019050919050565b6000819050602082019050919050565b600081519050919050565b600081519050919050565b6000602082019050919050565b600082825260208201905092915050565b600082825260208201905092915050565b600082825260208201905092915050565b6000610b3b82610b64565b9150610b4683610b64565b925082821015610b5957610b58610c2b565b5b828203905092915050565b6000819050919050565b82818337600083830152505050565b60005b83811015610b9b578082015181840152602081019050610b80565b83811115610baa576000848401525b50505050565b60006002820490506001821680610bc857607f821691505b60208210811415610bdc57610bdb610c5a565b5b50919050565b6000610bed82610b64565b91507fffffffffffffffffffffffffffffffffffffffffffffffffffffffffffffffff821415610c2057610c1f610c2b565b5b600182019050919050565b7f4e487b7100000000000000000000000000000000000000000000000000000000600052601160045260246000fd5b7f4e487b7100000000000000000000000000000000000000000000000000000000600052602260045260246000fd5b7f4e487b7100000000000000000000000000000000000000000000000000000000600052604160045260246000fd5b6000601f19601f8301169050919050565b610cd281610b64565b8114610cdd57600080fd5b5056fea2646970667358221220d77019168e386c7a10bc9fca2044c89fff5c44be0e779d458f9d3579e32a5ae464736f6c63430008000033",
  "linkReferences": {},
  "deployedLinkReferences": {}
}